:020000040000FA
:1000000000440020853E010001C9011001C9011012
:1000100001C9011001C9011001C9011001C9011074
:1000200001C9011001C9011001C9011001C9011064
:1000300001C9011001C901103FC90110DFF800F02A
:1000400085BF0110DFF800F061C00110DFF800F09B
:1000500079BF0110DFF800F089AF0110DFF800F080
:10006000A9C0011020B1082330220021FFF7EEBF04
:100070007047F0B51C008DB005460E46174603D1FB
:10008000002300F059FA0CE06846FFF7EBFF206808
:1000900005906B46606808903A4600F004F800F05E
:1000A0004BFA0DB0F0BD207AADF818003146284665
:1000B0007047FFF7D3BFFFF7C1BFFFF7CBBF00F01B
:1000C0005BBA00F063BA002101604FF0FF3141607C
:1000D000012101727047FFF7B5BFF0B40246106806
:1000E00095681318506803EB5004C00721D54D44A0
:1000F0001FE0F0BC02F10C00704713F8017B05F81B
:10010000017B491EF9D1A0B1B60813F8011B06F016
:100110000306032E08BF13F8016B01EB06214942C9
:10012000801C294405D011F8016B05F8016B401EB5
:10013000F9D1A342DDD013F8016B16F0030104BF1F
:1001400013F8011BC91C30090F28DAD113F8010B71
:100150000F30D6E7DFF800F0C1BF0110DFF800F084
:10016000B9BA0110DFF800F0E5C00110DFF800F0C7
:100170001FBE0110DFF800F069B20110DFF800F0D7
:10018000DDC00110DFF800F091BE011020B108239E
:1001900024220021FFF7DEBF7047F0B51C0089B0B4
:1001A00005460E46174603D10023FFF7E3FF0AE09A
:1001B0006846FFF7EBFFA06806906B463A4631466B
:1001C0002846FFF7D7FF0E480E4A016811602846FF
:1001D00009B0F0BDFFF7D2BFFFF7D4BF00F0DEB922
:1001E00080B500F0F2F900B10120C0B202BD0021DB
:1001F00081607047FFF7B6BFFFF7B8BFFFF7AEBF2C
:100200002C410100242E00203A4908686AE03A4A4D
:1002100011680029FCD10023D3611060D069002847
:10022000FCD0D161506870473448016821F0020168
:1002300041F40071016003213148816041F23001D5
:1002400041610121C160502141610121C1604FF430
:10025000CA6141610121C16001607047294802689B
:100260000A6082684A60C2688A60406B20F0784009
:1002700040F08050C860704701461022224800F0CC
:10028000F3B87047FEB50188B1F5C15F18D1426976
:100290001E4F0092002382690192C06902901C489F
:1002A0000268C2F303625DF8230098B1002550F89C
:1002B0002560BE4206D06D1CEDB2042DF7DD09E0CD
:1002C0000120FEBD042D05DC26F4702444EA02441E
:1002D00040F825405B1C032BE5DB0020FEBD0D49EB
:1002E0000A681040C2430A600A680242FAD17047A5
:1002F00000000000101004400010044000000460E2
:10030000004104404C130050180000210200F84442
:100310005413005008100440DFF800F011BF011022
:10032000DFF800F011B00110DFF800F015C0011087
:10033000DFF800F015C10110DFF800F005B301107F
:1003400020B1082328220021FFF7EEBF70470021CB
:1003500001604160C1604FF0FF318160704770B54E
:1003600014008AB005460E4603D1002203F096F829
:100370000CE06846FFF7E4FF206804906A46606876
:100380000590314600F004F803F088F80AB070BD1B
:10039000E0680790A068069028467047FFF7C8BF3E
:1003A000FFF7BABF03F086B803F08AB8FFF7B8BF0B
:1003B000FFF7C2BFDFF800F009C00110DFF800F05E
:1003C000059B0110DFF800F0E1A30110DFF800F059
:1003D0005DB40110DFF800F00DC1011020B1082359
:1003E00024220021FFF7E6BF704730B589B00446EC
:1003F0000D4600F00BF801218DF818106A462946C9
:100400002046FFF7E3FF204609B030BD6846E5E728
:10041000FFF7E0BF80B5FFF7D1FF10B96FF0010023
:1004200002BD002002BDFFF7CDBF024681B01078AB
:10043000022903D1517800EB012013E0032906D1F2
:100440005178927800EB012000EB02400AE0042989
:1004500008D15178937800EB0120D17800EB03406C
:1004600000EB016001B0704762B38B0708D0521EE9
:1004700011F8013B00F8013B00F024808B07F6D116
:10048000830740F0208000BF103A07D330B4B1E8B2
:100490003810103AA0E83810F9D230BC530724BF06
:1004A000B1E80810A0E8081044BF51F8043B40F838
:1004B000043BD20724BF31F8022B20F8022B44BFA3
:1004C0000B7803707047121F17D35B0009D151F8E6
:1004D000043B20F8023B1B0C121F20F8023BF6D213
:1004E0000BE051F8043B00F8013B1B0A20F8023BEB
:1004F0001B0C121F00F8013BF3D238BF121D521E15
:1005000024BF11F8013B00F8013BF8D87047017097
:100510000A0A42700A0C090E8270C170001D7047F1
:10052000002202F0E1BF0268531C036011707047A3
:10053000DFF800F0BDAA0110F8B504460B480C4FD7
:100540000668F8690D4650F82500B04209D10948FF
:1005500000902046FFF7ECFFF86950F82500B04204
:1005600001D10020F2BD2046F2BD00BF18120000EC
:1005700044010020240C0020102803D30249103825
:10058000C1F8000F704700BF00E000E081604260EA
:1005900070470000DFF800F09DB2011070B504460E
:1005A00002F0D2FF0646A08A0025012808D1FFF7F5
:1005B000F1FF0546E068451BA068A84238BF00254A
:1005C000304602F0C2FF284670BD808A704700683E
:1005D00008B9012070470020704700687047006824
:1005E000704738B504460D46FFF765FD00212960C8
:1005F000616869606168002914BF0D6025606560ED
:10060000FFE7BDE83240FFF766BD0A684B68002A85
:100610000CBF436053604A6809680AB901607047BB
:10062000116070470F180000DFF800F031BF0110B3
:10063000DFF800F0F5B7011030BF7047FCE738B5C0
:1006400002F048FC00F096F902F03FF8054605F08C
:100650000C000C2853D0680729D402F0A9FF0446E7
:100660000121012002F03BF83349096801FB04F243
:1006700090421CD2F020B0FBF1F03049241A887C63
:1006800018B1C868A04238BF04462D4D214605F177
:100690000C00FFF767FD05F10C00FFF767FD012077
:1006A00002F09FF905F10C00FFF758FD29E028073B
:1006B00025D4244C2448216A8A6890470428F8D01D
:1006C000EA06224900D420B9086840F00100086019
:1006D00003E00A68520852000A601D481D4D016877
:1006E00041F0030101602020226891698847286851
:1006F0002068816B884701212960286801E0FFF7A5
:100700009DFFBDE8314002F0E9BB10B5124CFFF788
:100710008BFF20601148006808B18047606010BD01
:1007200010B50F480C4C016809B160688847206813
:10073000BDE81040FFF77CBF2C410100C43D010023
:10074000080E0020B8010010004003408C21084032
:10075000242208402C200940802D0020084101005F
:100760000C4101001628A8BF203870472DE9F84F2A
:1007700080469748DFF85C920168974E8A0705D556
:100780000820B0719548C9F80000C2E0944801689B
:100790000A6890478246934805682F1700247F1CFB
:1007A000A80208D4CAF13E00C0100828C8BF08201B
:1007B0008742B8BF07468C480168C1F30460FFF761
:1007C000D1FF834689480168C1F30440FFF7CAFF9F
:1007D0005F44152F0146C8BF152704DC6FF00900E0
:1007E0008742B8BF074607F01F00814A40F4F8501F
:1007F0001080804A106810F0030F18BF01244007D2
:1008000048BF44F0020496F90700B8F1000F18BF82
:1008100044F00404AAEB0000042802DCB2799442FC
:100820005DD0AAF10F084FF0000BB8F1000FDC46C5
:1008300004F00400704B24D408EB08184FEA282C6D
:10084000BCF1070F88BF4FF0070CE646BEF1070F5B
:1008500028BF4FF0060E1A1D52F82E2053F82EE036
:10086000A2EB0E0E0EF0FF0B10B1CEF30722934455
:10087000A20744BFCEF307429344E20748BF0BEB05
:100880001E6B53F82C2002F0FF0310B1C2F30720B7
:10089000C318A00744BFC2F30740C318E007A8EB82
:1008A0000C2048BF03EB126300FB0BF0CF1B803022
:1008B000002F03EB1023D8BF0127342005F0FF05DC
:1008C00047437D43B5FBF3F04FF6FF71884288BF85
:1008D00008460AF3070AB08086F807A0B4714748B3
:1008E0000168B088316000211F2804D21F20B08029
:1008F00004E04008491CB0F5007FFAD20F38000927
:1009000041EAC0013E480143C9F800100020C9F87F
:100910000400BDE8F18F38B505463A480468A4B232
:100920003CB32F4801680A6890472B4991F907208A
:10093000904205DA6FF07F029042B8BF1046C8714E
:10094000A542888834BF641B0124844210D32B4AFB
:1009500013680A689A1A921C1F2A88BF1F22241A39
:100960005208D4402418B4F5803F28BF4FF6FF74D6
:100970008C8031BD2448006800B9704730B52349E8
:100980008A6802F04063B3F1406F1FD0104B1C68BF
:10099000A5071BD44C68A50718D41C680968C1F3C7
:1009A00003511C31090114F0050F04D088420DD207
:1009B00024F0050409E0814208D2100158BF44F038
:1009C0000104500158BF44F004041C6030BD000015
:1009D00000000940301009403C2E0020FDFDA4001D
:1009E000EC010010B43F0050B81200503C11005010
:1009F0006E620840242208409C13005008200940E1
:100A000000E7A4803410094028500940AC3F005052
:100A100001480078704700BF742E0020034A5368D5
:100A20004FF4C07148431844704700BF684E00201F
:100A3000DFF800F0DD97011070B54C68456860B3D1
:100A40001EF04CFD064606F6C416A06831461EF0A0
:100A500049FD012808D0A06831461EF043FD012859
:100A600018BF00200DF080FCA0683146FFF7E0FFC2
:100A700048F6B901884210D3A16809484118A8680E
:100A80001EF030FD48B906F58846A86806F15C01FD
:100A90001EF028FD10B1012070BD022070BD00BF06
:100AA0004877FFFF01484078704700BF742E002050
:100AB0007CB5040004BF00200DF056FC28494C60B2
:100AC000606900B180476068017B01F00F01022975
:100AD0000CBF80681EF002FDA0602078802818BF3F
:100AE000402811D11F480021017041708170C170F0
:100AF000017141718171C171017241728172C17262
:100B000001734173C17301611749087817490028BF
:100B1000087814BF4FF48022002228B12378012BDB
:100B200008BF4FF4002000D00020024310480243C9
:100B30000021CDE900210F4861680F4C256800684D
:100B400055F8086F0D4B0222B0470D4910F1020F06
:100B5000088004D1BDE8764000200DF005BC73BDCF
:100B6000742E00205C4D0020784E0020512F002074
:100B700002048080EC4E0020F04E0020493201003B
:100B8000424F002018B50B4A9268002118234B43AE
:100B9000D45C844202BFD3185B78012B08D0064C8A
:100BA0002378491CC9B29B1C9942EFDB002012BD7F
:100BB000012012BD742E00207B4F00208301000114
:100BC000A10CD003D40D0020000143040E14200218
:100BD0003401002004523C041200011007102F00C1
:100BE00020E82A0020EC04C20001100120010105C8
:100BF000D118520001100720050020200D0020010F
:100C000011C30100012002D80C0020042200015071
:100C1000026CDC0200015003900C0020030D000662
:100C2000BF0E0100090F0100F30101000120025075
:100C30000D002017120001000220050020520001C3
:100C40005200011200010002080000000300000031
:100C50000000000000000000000000000000000094
:100C60000000000000000000000000000000000084
:100C70000000000000000000000000000000000074
:100C80000000000000000000000000000000000064
:10100000B41200001810000015AB0110FDB3011060
:101010006DC00110FDAE011099B501100000000077
:10102000000000002D000000B01200003C10000085
:10103000B1C00110A9BF011067C0011069B801104B
:10104000000000000000000030000000B0120000AE
:1010500060100000BDC00110CDB30110D9BD01105A
:101060006DB301100000000000000000310000001E
:1010700000000000440C00200400000000000000FC
:1010800000000000200000000037010030000000D8
:1010900028100000640C0020040000000000000084
:1010A000000000000C000000643D0100180000007A
:1010B0004C1000006C0C0020040000000000000038
:1010C00000000000240000007C3D0100180000002A
:1010D00000000000AC0C0020040000000000000034
:1010E0000000000010000000A03701002C000000EC
:1010F00000100000C80C00200400000000000000E8
:101100000000000020000000F4390100240000006D
:10111000FFFFFFFFD00C00200400000000000000D3
:101120000000000028000000183A01002400000020
:10113000FFFFFFFFF80C002004000000000000008B
:101140000000000014000000943D010018000000A1
:10115000FFFFFFFF000D0020040000000000000062
:101160000000000058000000883501003400000035
:10117000FFFFFFFF080D002004000000000000003A
:101180000000000010000000AC3D0100180000004D
:10119000FFFFFFFF100D0020040000000000000012
:1011A000000000001C0000003C3A01002400000088
:1011B000FFFFFFFF180D00200400000000000000EA
:1011C0000000000038000000B838010028000000CE
:1011D000FFFFFFFF800D0020040000000000000062
:1011E0000000000054000000103301003C0000002B
:1011F00001000000304101000100000000000E006D
:1012000000000F0032000000010000004C0C002024
:10121000000200000000000001C9011000000000F1
:10122000000000000800000000002200740C0020F4
:10123000000000000000000008000000D80C0020A2
:101240000000000000000000080000000000000096
:10125000000000000000000000000000010000008D
:10126000200D00200600000001000000880D002075
:10127000000000000000000000020000000000006C
:10128000290001002500300031002D00010001007F
:1012900004000000003F010000000000000000000A
:1012A000000001000000030013C401101D0F010025
:1012B000B8120000B812000000000000BC0C0020B2
:1012C0007D0E0100200000009C3E0100E03801007E
:1012D00029C10110C73F010007410100A1C701104A
:1012E000A3C70110000000008F120000AC2F010006
:1012F000C42F0100942F010002000900010000002A
:101300000100000085380100593801008D3C0100C2
:101310002D360100CD360100DD2F0100152C010016
:101320003D3E0100F50D0100550F0100590F010070
:1013300038B50546FEF7BFFE2C680CB12168296060
:10134000FEF7C9FE204632BDF8B506460F463468A2
:1013500000201546386034B9FEF7ADFE376095B110
:10136000012129700FE005B12870FEF7A4FE00E00E
:10137000246821680029FBD1BC4203D1FEF7ABFEF3
:101380000020F2BD2760FEF7A6FE0120F2BD70B579
:10139000002306462824DFF8740A5C43204400F149
:1013A0002404B4F90050B54204D10D0006D0E4780D
:1013B0000C4203D15B1C082BECD3002070BD10B590
:1013C0000446FEF717FF2046BDE81040FEF714BFA5
:1013D00038B504460D4600F0C7FFA04231BF241ABD
:1013E000641E241A641CA40805F57A70A04238BF54
:1013F000B4F1405F05D2641B012C98BF0124204644
:1014000032BD002032BD70B50446DFF8040A006A20
:101410000025D8B18268117B012501F00F01022956
:1014200013D1C068DFF8EC39C16893F83F60192028
:1014300000FB06119068FFF7CBFFDFF8DC19206096
:101440000A68B0FBF2F2226001E00020206028462A
:1014500070BD30B5039C049D01600474C56042609A
:10146000836030BDF0B583B00446FEF724FE054628
:101470008CB3DFF8A829607C13680121DF0701FA2B
:1014800000F60FD5DFF898295368113001FA00F003
:1014900023EA000050601068637C113301FA03F303
:1014A000984310600020DFF8947BA074002394F927
:1014B00011003A88814011433980002001900021B9
:1014C000009100222046FFF7C4FFF878411EF97012
:1014D000F0B200F0CDF82846BDE8FE40FEF7FBBDB7
:1014E000032805DA1421DFF82C29484310447047FB
:1014F000002070472DE9F04106464FF0FF300027ED
:1015000030600025DFF81049DFF80889E8B2FFF7FE
:10151000E7FF00281CBF817C002917D0017C012730
:10152000022919D0DFF8E8288068516B98F83F202D
:10153000C968192303FB0211FFF74AFF2168B0FBBA
:10154000F1F03168884288BF084630606D1C032D79
:10155000DCD33846BDE8F08100203060F9E738B5CB
:1015600004281BD1DFF8A84804F1E8052846FEF757
:1015700037FE98B12846FEF731FEDFF89C180A685E
:101580005043B0F5967F09D22846FEF737FE052076
:1015900001F0BEF90120A07700F0E5F8002032BD8F
:1015A00038B50020FEF76DFEDFF864480FF2A54164
:1015B000002204F17C00FEF784FD00F038FB904728
:1015C0000246A06B904231BF121A521E121A521CD0
:1015D000E06B1218E07D120BE26300281CBFA17DB6
:1015E000012903D0206CC00290422BD20020A075AC
:1015F0000121E175DFF8A00B01680A0622D540F64B
:10160000090020800021607B616000F0D6FB6073E0
:10161000207B00F0F0002073FEF74DFDDFF87C1B0F
:101620004A6922F002024A616FF002020A610C600C
:101630000B699D07FCD50A614A6942F002024A61C2
:10164000FEF749FD0020A063FEF7EEFDDFF8481C21
:101650000020086031BD10B50446FEF72CFDDFF810
:10166000B0170A7D14430C75BDE81040FEF733BD7A
:1016700070B582B00646FEF71EFDDFF894570446AB
:10168000287D38B3297D21EA06062E75287D0107BD
:1016900020D4287D01061DD4287DD8B1DFF8741729
:1016A00091F83E00B0B96846FFF724FF00281CBF40
:1016B000009800280ED00026F0B2FFF711FF20B1ED
:1016C000817C022904BF01228274761C032EF3D38D
:1016D00000202875287D10B9082100F077F92046F0
:1016E000FEF7F9FC73BD30B583B0054601A8FFF7DE
:1016F0008AFE04466846FFF7FDFE3CB100280199CA
:1017000008D0009A914205D9114603E0002814BF81
:10171000009900212960204318BF01203EBD38B543
:10172000DFF8EC46617E19B11920FEF7C8FC31BD27
:10173000A17EB9B9FEF7BFFC05466846FFF7D3FFA7
:1017400070B1E07E10B10121217609E0009828B146
:10175000014604F1E800FFF732FE01E000F003F873
:1017600000F08CF831BD042104F14800FEF71CBEE6
:10177000F8B5DFF89C66DFF8240B746AFEF7AFFD5E
:101780000546DFF8D40B0268076802F020022A4001
:1017900018BF002C07F460270BD0B462D4E906010F
:1017A0001143C4E906014FF4005106F14800FEF769
:1017B000FBFD3D400ED0DFF85C0690F83E1041EA9C
:1017C000554580F83E5006F19800BDE8F4400021F0
:1017D000FEF7EABDF1BD2DE9F843FEF76CFCDFF83A
:1017E0003486054698F83E00002448B1002098F859
:1017F0003E1001228240114210D1401C0328F6D332
:1018000000F03CF898F83E0030B1BDE8F443002108
:10181000DFF89C0BFEF7C8BDBDE8F18398F83E10D9
:1018200010228240114218BF012498F83E10112264
:101830008240914388F83E10C0B2FFF751FE002865
:10184000DED00168477C466889460CB18E6905E0A8
:10185000017C022902D1C268D1040AD4FFF702FE3A
:101860003CB100224FF000736FF0FE014846B047D4
:10187000C6E700224FF000633946F7E72846FEF737
:101880002ABC2DE9F843DFF88855DFF810696C6A47
:10189000FEF7BAFC07466CB3D4E90401BA071AD5BF
:1018A00000226A6240F00203226A1F401743276247
:1018B000D4E906233A43C4E906237269824372617C
:1018C00005F12C00F2688A43F26021460022FFF7FE
:1018D0003BFD02210CE007400CD0AC62206A0743BC
:1018E0002762D4E906013843C4E906014FF4804178
:1018F00000F06CF84FF00008DFF818754FF00109A0
:101900005FFA88F0FFF7ECFD04002DD0A07C0128E1
:101910002AD1B168607C113009FA00F08143B160CE
:10192000F068617C113109FA01F10843F06094F923
:10193000110009FA00F0C0B2FFF78DFEE068002147
:1019400000F07EFC812802D10220A0740CE097F800
:101950003E00112162569140084387F83E00002165
:1019600005F19800FEF720FD08F10108B8F1020F1B
:10197000C6D92C6A686A30BB1CB36846FFF743FDC2
:1019800000281CBF0098002803D00820FFF770FE35
:1019900019E00820FFF75FFED4E9040172690243F1
:1019A00072610020F2680A43F260F061A068306062
:1019B000F0690028FCD005F12000FFF7B9FC68624F
:1019C00001E000F002F8BDE8F183022105F14800D2
:1019D000FEF7EABC08204BE62DE9F04207468946AF
:1019E0003E6E14461D4606B1B047D7E916010440C5
:1019F0000D400020854208BF844216D08021484611
:101A0000FFF7C5FCC7E91A4538B1D0E90623A24360
:101A1000AB43C0E90623396E41600020386607F108
:101A20003800BDE8F042FEF7FEBCBDE8F0820000E1
:101A3000704780B5FEF7B6FCDFF8D4230146506B43
:101A4000526CBDE8084010470421DFF8700BFEF728
:101A5000ABBC000080B5FEF7D7FBDFF8641B084283
:101A600004D0BDE804404FF00051EEE701BD70B571
:101A7000DFF89C53EC6A002C52D0A168202000298A
:101A80001CBFC2B2002A51D00A8840F603039A4212
:101A90001FBF40F604039A424968401EEFD140E060
:101AA00000224FF08043B4F92410E0686668B04724
:101AB000FEF701FB0646688E401CC0F30B006886EB
:101AC0000020E96A81F8270005F12C00FFF730FCBF
:101AD0003046FEF700FBB5F93200E26802F19401EE
:101AE000B1F9003098421BD1887808B9106828B93C
:101AF000002088700820BDE87040B9E5696B0B686C
:101B000013F1010F0CD0C44C2168BDE87040B0FB4C
:101B1000F1F1012998BF012102F17000FFF74FBCDC
:101B200070BDE06818222030FEF7AEFC226A00206B
:101B3000206260680028BBD094F82700002300F0E2
:101B40000700012842F0020207D00228A8D004288A
:101B500004BF00224FF08053A5E700224FF000534E
:101B6000A1E738B50D46A807A94C18D5FFF77FFFA8
:101B7000E06A25F0020510B145F0020109E06807AE
:101B800002D4206A002851D004F1E800FEF736FBA9
:101B9000042104F14800BDE83440FEF705BC6807A5
:101BA00044D50120E077042000F0B2FE00F03FF8B9
:101BB0009047A063206A08B1C0686063606B4168A9
:101BC000DFF8540A0A780260022000F0A1FE11201A
:101BD00000F0B3FE0120A076606B017C002919BFE4
:101BE000E07D00280E2000F0A8FE606BDFF8AC2539
:101BF00040688168002904BFC068002804D0002123
:101C0000D161DFF8180A106040F2FF70DFF8881623
:101C1000086000219161DFF8A80950610FF21900F6
:101C200060641920BDE83240FEF747BA31BDDFF8E5
:101C3000F80901680A6B70472DE9FF4104468800E6
:101C400040F18F80724D686B4068406800B18047FA
:101C5000686BDFF8486542689068002804BFD16867
:101C600000290DD000F0A3F8906800B18047686BA0
:101C70004068C06800B18047DFF8A409FEF7C7FAE2
:101C80000020F06140F60A08DFF898093060012072
:101C9000FEF7F7FA0FF28D106864002100206880CB
:101CA000A5F800806960287B00F0F0002873687B4D
:101CB00000F083F86873A26817467980E97D09B15E
:101CC000607CA0B1108840F60201884218BFB0F5D0
:101CD000C15F05D1398A4FF60F400140398204E0D7
:101CE000398B4FF60F4001403983002060746946FC
:101CF0001046FEF7B3FA6846FEF7BEFA786890B36E
:101D00000188414518BF0746F8D12CE0208C0028F7
:101D10003BD000216184616204F12C00427801789B
:101D200002F0F00201F0F00142F001020170427095
:101D300004F120006860687B00F0F000687324E024
:101D4000DFF8E8180A68136801209847012806D0D0
:101D5000787B00F032F878730FF269006864A0684D
:101D60003060BDE8FF817D6040F60301787B00F0C4
:101D7000F0007873286A8068008888421CBF40F6AB
:101D800004018842C2D10020A86300F010F84FF689
:101D9000FF30A1680A8A02400A82A87F0028CFD0BB
:101DA00000F051FF0028FBD000F05EFFD7E7F0699C
:101DB0000028FCD00021F161704700F0F00040F0F5
:101DC00001007047DFF86828114200D17047DFF842
:101DD0005C18012010B50A680D4C1368984701285B
:101DE00006D10FF241006064DFF8B003046010BD5B
:101DF00009490A683220B0FBF2F104F1E800BDE8BD
:101E00001040012998BF0121FFF7D9BAF014002032
:101E10000C2B00202C2C0020242E002040210840D8
:101E2000081004402DE9F04105460C46600484B0DA
:101E3000DFF8006819D5FEF73EF9B56A85B12F6A5B
:101E4000B9070DD400212962FEF745F9686848B149
:101E5000B5F92410E8686D683A460023A84701E008
:101E6000FEF739F924F48044E0E0A00709D5FFF734
:101E7000FEFDF06A002824F0020401D044F00204C0
:101E8000D4E0A0007BD5F07F20B1042000F0DBFC83
:101E90000020F07740F60202A8680188914218BF3E
:101EA000B1F5C15F05D1028A2D2161F309120282C9
:101EB00004E0028B2D2161F309120283B06B30B371
:101EC000DFF86487D8F854100A6804209047F0B10E
:101ED000D8F80000B76B016B8847874231BFC71B3A
:101EE000401EC71B7F1C688AE96800EB17308842D8
:101EF000E86002D209184908E96040F2D171E86847
:101F0000A0F5FA70884224BF40F6C411E960707BE6
:101F100010F00F0F02BF688C40F60901884207D10C
:101F2000AF6900224FF000736FF480712846B84704
:101F30000022DFF8041706F17C00FEF7C2F8B07D3E
:101F400068B10221ADF800106846FEF760F9BDF8EF
:101F50000800DFF8E816400988870020B0750120E6
:101F6000707624F000540020B076FFF7D8FB2846A6
:101F70006D6900224FF080630021A84756E02007DA
:101F800043D5707F10B1002171773BE0706B7030EA
:101F9000FEF734F96846FFF7A6FB20B1009906F179
:101FA000E800FFF70CFA002070760120F076DFF8E9
:101FB00090067064FFF7F4FA707D20B9716B01F13F
:101FC0003800FEF730FA022000F03DFC112000F04E
:101FD00050FC287C10B90E2000F04BFCB07F01288B
:101FE00004D10021B177052000F02DFC0020F0760F
:101FF0003077307E30B10021317606F1480004217F
:10200000FEF7D2F924F0080410E0A0040ED5756A9A
:10201000002D1CBF6868002806D0B5F92410E868B8
:102020006D6800222023A84724F4005424B12146DF
:1020300006F14800FEF7B8F9BDE8FF81682C0020E2
:1020400030B585B000F064FBDFF8F805DFF8F8453F
:102050000168DFF8E05541F0020101606846FEF7D3
:1020600076F9A078DFF8E41502906A4605F1480099
:10207000FEF775F96846FEF726F82178DFF8D025D7
:10208000019100208DF808006B46192105F17C00B4
:10209000FDF7EFFF6846FEF75AF9E078DFF8B41570
:1020A00002906A4605F19800FEF759F96846FEF776
:1020B0000AF801208DF808006B466078DFF8982553
:1020C00001901A2105F1CC00FDF7D3FF0023002277
:1020D000DFF8881505F1E800FEF75FF8DFF8600526
:1020E000DFF87C2568640023042105F5867000F084
:1020F00098FBDFF848154FF6FF7088870122002013
:10210000E8756883E861A863AA750520286405B0AE
:1021100030BDF8B5DFF81C65306A0C4600278442F4
:10212000154616D19CB194F8271041F0040184F8AB
:10213000271006F12000FFF7FBF80022214606F1E8
:102140002C00FFF701F97F1C346A2800EAD13846D9
:10215000F2BD316A31B1086820B10A68A24201D0EB
:102160000968F7E70C4600E02468002CEFD02068EF
:102170000028F9D0216891F8270040F0040081F888
:10218000270006F12C000A6822607F1C0022FFF75E
:10219000DBF82800EBD1DAE700000440001004402F
:1021A0002DE9F04781468A4602F0010403275608CC
:1021B000FDF781FF1AF1010F06F001068046DFF8F6
:1021C000745405D1686A00280CBF286A686A03E065
:1021D00000215046FFF7DBF868B390F827100A0695
:1021E00028D5696A884215D190F827100122A240AB
:1021F000114380F82710002C14BFDFF86804DFF8C3
:102200006804FEF704F89EB1296A32464846FFF793
:1022100080FF0DE0014632464846FFF77AFF48B19D
:1022200005F1E800FDF7EAFFA87E08B9FFF7CDFB4E
:10223000832700E0042700F02EF93846BDE8F08738
:1022400010B5DFF8F0230C46517E59B1FDF7DFFFE2
:1022500004B1206000F0FF00012801D1812010BDF1
:10226000022010BD012010BDF8B504460D461646EB
:10227000FDF721FF0746DFF8BC03416B8C4218BF16
:10228000032404D131462846FFF7DAFF04463846D6
:10229000FDF721FF2046F2BD0000046020000E0083
:1022A000F0B50746DFF8C4038BB00E001546006892
:1022B00018BF002D1C464CD03278D040C00748D5FE
:1022C00000212846FDF7DEFF7E60BD60FDF7F3FECE
:1022D00000F044F83BD1FFF7B3FE707D401C7075F1
:1022E000FFF7CCFA34B903A80FF2A4311C22FEF791
:1022F000CBF803AC2068DFF8781338600A466068D2
:10230000F860207C387401207874608A7882E068F4
:1023100000B10146B961A06800B102467A61782136
:1023200007F12000FEF7FCF8002107F13800FEF766
:102330005CF86846FDF75BFF02976B460022DFF80A
:10234000341307F17000FDF728FF384602E0FFF76D
:1023500095FA00200BB0F0BD0C100440DFF8D462F9
:102360000546707D00287047F8B5FDF7A4FEDFF83C
:10237000C442617E29B1DFF800231468FDF7ABFE8B
:1023800014E0FDF7A8FEFFF752FC904710F500326D
:10239000DFF8E80241F10003A0FB026700FB0377CE
:1023A00021690020341847EB01052C462046F2BD78
:1023B000A42B00202DE9F04782B082460F469146BB
:1023C0001C46FDF778FE804600202822DFF8B01278
:1023D00042438D1895F827100A0608D5401C082896
:1023E000F3D300F058F86FF00100BDE8F6870AF16A
:1023F0007000FDF703FFDFF83C62308E401CC0F335
:102400000B003086281D476005F1100787F81690ED
:102410000460318EB982C0F808A0DDE90A42DFF815
:102420006402202120401140C7E900016A460020D3
:10243000F875C7E90200294606F12000FEF784FF7F
:102440000028CED00AF19400B98A01808178012950
:1024500002D100228270B275F87D40F08000F875DC
:102460009DF8000001280AD1317F00291CBF707E31
:10247000002804D00121002071773077B07500F07A
:102480000AF89DF8000018B1716A09B9FFF747F919
:10249000B7F91400A9E74046FDF71DBE2DE9F0414C
:1024A0000C46002C054616461F4601D500201CE0B0
:1024B000FDF776FF804680212046FEF768FF040086
:1024C00003D094F82700010602D400F03DF80BE099
:1024D00094F8270010F0070F09D000F035F894F8B1
:1024E000270010F0070FFAD1022000212AE0D4E9DA
:1024F000060146F00206304039400022914208BFF2
:10250000904210D000F020F8D4E906013040394064
:10251000C5E91A01D4E9062322EA000023EA0101F1
:10252000C4E906010CE061685748814202D0616845
:1025300029666060C5E9166700F006F800F007F844
:10254000D5E91A01BDE8F0814046FDF731BF4FF0F3
:10255000FF3105F13800FDF75DBFDCB5DDE9066749
:102560000446CDE90067180008BF474B2046FFF737
:1025700021FF0146204602B0BDE8D04000224FF0C6
:10258000E0438BE70CE642F0020209E60FF200118D
:102590001C22FDF779BF00E000BF002264E680B591
:1025A0006A463A49FFF760FE812803D1009800028D
:1025B000001602BD6FF07F0002BD0000542B00200A
:1025C0000200004070B50E461546FDF774FD8324E9
:1025D000184A1EB1022E0ED005D30FE0516A41B148
:1025E000526A918C03E0917D19B9144A918F298028
:1025F00005E0802403E0517E297000E00324FDF70C
:102600006AFD204670BD80B508468021FEF7BFFEFA
:1026100000B1806802BD0000D021084051000706CB
:102620000100070601010E048C010010E0010010FA
:10263000040000200C2B0020831800002C2C00200C
:10264000631B00000020094034410100331A0000E0
:10265000551A0000D717000071170000491A000032
:102660005F1500000100020401000104D4210840AC
:10267000311A0000D51900000430044000093D0063
:10268000F0140020F1EFFF9FD919000001000304AE
:10269000FFFFFFFFC4090000000000000000000071
:1026A00001003A01000000000000000070B5DFF8F2
:1026B0007047DFF870072568EE6800230122342197
:1026C000B04700B10120C0B270BDDFF85C07806880
:1026D0007047DFF85417084490F8F000704702463E
:1026E0000020022904D1012A06D140F2EE207047D1
:1026F000012A08BF4FF47A707047DFF82C1791F861
:10270000E60020B1D1F81001002818BF004770473B
:102710002DE9FE43DFF8108708F1E106B0790028C3
:102720007CD1DFF80817DFF808770A6892090120E2
:1027300002F00102B071F271F87CDFF8F856DFF8B0
:10274000F89670717868C8F810016846FDF74FFD7B
:10275000002101918DF8001002916B4600220FF2CA
:10276000115108F10C00FDF718FD6B4600220FF225
:10277000F15108F13000FDF710FD6B4600220FF219
:10278000255108F15400FDF708FDB968012088477C
:10279000DFF8A80601786868C0F38154387D20B15D
:1027A000032C02D10121317003E0032C18BF022C4D
:1027B0000DD1022000F0ACF8032CD9F800100CBFAA
:1027C0004FF47A7042F21070B0FBF1F118E0012C76
:1027D00002D100F04EFA1BE0D4B9022000F098F8C4
:1027E00000F090FA9847012803D1002000F041FA48
:1027F0000EE0D9F800003221B1FBF0F1B1FBF0F1AD
:1028000008F15400FDF7F6FC08F15400FDF7F4FC64
:10281000286840075CBF002000F07AF80020BDE87F
:10282000FE8338B5002408B1150002D16FF0020410
:1028300007E08160C26003610146DFF8EC05FDF747
:10284000D0FE204632BD10B50446FDF734FCDFF85B
:10285000D8150A1992F8E9305B1E82F8E930DBB22C
:1028600033B98A68012303FA04F422EA04048C6071
:102870005FE0F8B50546FDF71EFC0446DFF8A81535
:10288000481990F8F020521E80F8F020D2B27ABB9E
:102890000FF2F450DFF8A87500EB850210F8255010
:1028A0005688280615D539680A6A304690473A682E
:1028B000916A3046884739680A6B30469047DFF89E
:1028C000841501200860DFF8801508688007FCD5B2
:1028D00007E0680611D501EB86010020D1F804213C
:1028E000904705F03F053F2D1CBF2846FFF7C1FF6D
:1028F0002046FDF7F0FB0020F2BD39688A693046BA
:1029000090473A68516B304688470228F9D1E8E78A
:1029100010B50446FDF7CFFBDFF80C158A680123DC
:10292000A3401A438A60214491F8E920521C81F89F
:10293000E920FDF7D0FB002010BD2DE9F04107464E
:10294000FDF7B9FB0546DFF8E064F01990F8F010E8
:102950004A1C80F8F02049BB0FF22C5818F82700C9
:1029600000F03F003F2818BFFFF7E7FF08EB8700A4
:10297000448818F82700DFF8C87401060ED53968B6
:10298000CA69204690473A68516A204688473968A4
:10299000CA6A2046904700F01AF807E040060BD5B7
:1029A00006EB84010120D1F8042190472846FDF769
:1029B00092FB0020BDE8F08139684A6920469047C3
:1029C0003A68516B204688470128F9D1EEE7DFF8D5
:1029D000741401200860DFF8701408688007FCD5C3
:1029E00070472DE9F84F0746DFF84004DFF86054E0
:1029F0000168002600244A06A0460DD5287B58B958
:102A0000DFF85004DFF8501402680A4042F0817287
:102A10000260202000F07DF9012F18BF6FF001093E
:102A200057D12868012852D102212960FDF76DFE97
:102A3000012000F06EF95FEA00094BD1FDF7B0FC10
:102A4000DFF81814DFF8F87300900C600120B96A01
:102A50000A689047012803D1002000F0B5F901244D
:102A6000DFF8FC13DFF8E4A3DFF8F8230E60DAF8F0
:102A70000010907808B14FF00108517809B148F082
:102A80000208107808B148F00408E87F20B13968DE
:102A90000A6B4FF480609047A87F20B139680A6BB9
:102AA0004FF481609047DFF89C130120086048F0E4
:102AB000200039688A699047DFF8AC13012008606C
:102AC000DFF86413087AC10709D501261FE06FF00B
:102AD00004097FE001202860FDF722FE7AE0396AD0
:102AE000DFF888038A6890478346BBF1040FF6D06D
:102AF000BBF1010F05D13A6ADFF870035368032177
:102B00009847DFF86C03016889088900016000209C
:102B1000FDF72CFEDAF800003868816B884776B93B
:102B2000BBF1010F05D13A6ADFF840035368012178
:102B30009847DFF83C03016841F003010160012080
:102B4000DFF81C130860404639684A699047E87FFF
:102B500020B13968CA6A4FF480609047A87F20B1DD
:102B60003968CA6A4FF481609047B649BE4A01206D
:102B7000086000211160032028603A68516B4046CC
:102B800088470128F9D1DAF80000042000F0C1F8E4
:102B90000646B24901200860DAF80010A349086827
:102BA0008006FCD514B1012000F00EF900F096F972
:102BB000082000F0AEF80643012028600098FDF7D9
:102BC000F7FB9B48008AFDF7A6FEFDF7A9FD0EB1B5
:102BD0004FF0FF394846BDE8F28F38B50446FDF79F
:102BE0006AFA054621469048FDF70FFD2846BDE8E4
:102BF0003240FDF770BA3EB50024012804D020D33E
:102C000003281CD017D31CE06846FDF7F0FA864D68
:102C1000984901948DF8004002946B46012205F119
:102C20007800FDF7BAFA0023934A2C2105F19C00A5
:102C3000FDF71FFA05E000F06DF9044601E000F031
:102C40002DFA20463EBD38B5FDF735FA76490546E2
:102C500091F8E000012410B1FFF728FD0446284652
:102C6000FDF739FA204632BD002079E0000000006F
:102C70007047F8B56A4C6B4D032000901C23266802
:102C800077684FF0405200212846B8470120009055
:102C900028462468656809234FF400720021A8477C
:102CA000F1BD000010B500F02DF89847022818BFBC
:102CB000032805D1FFF7DDFFBDE810400220C2E583
:102CC000012802D1BDE81040D3E76C480168C1F388
:102CD0008150032808BF4FF47A7004D002280CBF3B
:102CE00041F28830322054494F4C0A68B0FBF2F16F
:102CF00004F15400FDF77EFA04F15400BDE81040E1
:102D0000FDF77ABA5E490A6813680420704700200C
:102D1000704738B50546444C2046FDF758FC88B945
:102D20002046FDF75AFC0446A068284205D02269D7
:102D3000E36800212846984730B92046FDF74FFC4C
:102D40000400F1D1002032BD4FF0FF3032BD4D49BB
:102D500001280CBF40F2FF7000200860002070477F
:102D600070B5FDF7A8F9304D314E044695F8E000F6
:102D700050B1287A410613D4FFF798FC80B100F0D7
:102D80001CFB002085F8E0000220B568A847064635
:102D90001020FFF7BEFF012E11D10320A8470EE03F
:102DA00025490A683220B0FBF2F101B9012105F191
:102DB0003000FDF71FFA05F13000FDF71DFA20463F
:102DC000BDE87040FDF787B938B5012823D12C49FB
:102DD0000A681368984701281DD000F0E1FA124DE7
:102DE000012085F8E000287A810616D4124802688E
:102DF0003221B1FBF2F404B9012405F13000FDF7F2
:102E0000FDF9214605F13000FDF7F4F905F1300038
:102E1000FDF7F2F901E000F0F6FA002032BD000003
:102E2000A401001000A00C40080E0020141009405E
:102E3000C43D0100B03F0050242E0020482F002048
:102E4000B801001028200860282008402C200940E4
:102E5000E40E002004000940FFFFFCFC0C40094088
:102E600000022243070F002080010443004003407A
:102E700024220840E5310000792F0000B43F0050C3
:102E8000E0010010000004608F0000008F000100CE
:102E90008F0002008F000300900000018F000101ED
:102EA00090000002900000038F0001048F000005D5
:102EB0008F0008048F0000048A0000065100000003
:102EC0007F0001003F0004003F0002003F000100BE
:102ED0007F000200EFF3108072B67047EFF31080AE
:102EE00062B670470138FDD17047704710B50C18B5
:102EF000FFF7F0FF411E8941C90FDFF86024106819
:102F00000028FCD024680123136009B1FFF7E6FF15
:102F1000204610BD38B5DFF8485428780024002832
:102F200002BFDFF84014487D00280CD0FDF7C3F83D
:102F30000146A878002806BF0122AA70012408468D
:102F4000FDF7C9F80CB1002032BD0220FFF7E0FC0C
:102F50000E20FFF7F2FCDFF81014086808B101201A
:102F600032BDDFF808044022C26002600120C8615F
:102F70000020687032BD00002DE9F041DFF8EC134D
:102F800082B000200860DFF8E81301F1D804A07ACD
:102F9000002837D00128DFF8DC53DFF8DC2332D1FA
:102FA000DFF8D81316684BF2F52046430868360A56
:102FB000C0F3814001280BD1A86C0168884700F05C
:102FC0003AFA00F053FA3509C010454306EBE536EE
:102FD000607B10B10021617306E0DFF8A403006894
:102FE00020F07F4036187608DFF898030660360C2C
:102FF000466001218160DFF86C13487D002849D0CC
:103000000521217348E0022809D11568284600F0FF
:103010000CF9A5F2FF55032D3CD308203BE0032813
:103020003AD1106801F1B806A0F5C0603168F061CE
:10303000002948BF4942002848BF40428142A8BFFA
:10304000002026DA7068D04F80B200900823D5F8AF
:1030500000C0DCF804804FF47F4230213846C0477E
:10306000B06880B200901223D5F800C0DCF804806C
:103070004FF4F80204213846C047B06980B200908E
:103080000A232D686E684FF4406220213846B0470D
:10309000012020700B202073BDE8F3412DE9F84397
:1030A000DFF8CC82B94EDFF8E092B94CB94FAF48A7
:1030B00008F1E105E9784A1E0B2A00F29280DFE868
:1030C00002F00630415F74415F74415F7B8031687C
:1030D0000A68202090470F20E060072341F61D502A
:1030E00020614FF4C072022000900021D6F804C085
:1030F000DCF804404846A04776684846D6F80C906D
:1031000007234FF4C0720021C84701203860022015
:10311000E87008F17800BDE8F243FDF76DB8BDE84E
:10312000F1830120E061287800281DBF002139616A
:1031300003200620E8700320206000207860786873
:103140008107E6D470684668E878032808D1022130
:1031500000910523602200214846B04704200BE07F
:10316000002000900523602200214846B047E878FF
:1031700006280CBF07200A20E87001207860C8E705
:10318000042903D12021A161012105E001220A299E
:10319000A2610CBF03210221697000212160082176
:1031A000C160016001202060B9E705290CBF06203D
:1031B0000920E8700020E1E70020386078600C20EA
:1031C000A6E7002101600120674908600E20FFF793
:1031D00050FB0220FFF737FB0120E8700020A870A9
:1031E0009DE7FEE762496B4891F8E420921E0A2AA7
:1031F0001AD8DFE802F0060A0E190A0E190A0E198B
:10320000120002689107FCD548E741688A07FCD4A0
:10321000FAE741688A07FCD5F6E702689107FCD413
:1032200041688A07FCD4EFE7FEE7F8B50446564D3F
:1032300030212846FFF75AFE4D4F07F1B806C0F37C
:103240000720706004212846FFF750FEC0F3844039
:10325000B06020212846FFF749FEC0F38120B4F575
:10326000C064B061346003D1002087F8D800F1BD9C
:10327000316997F8D80028B97068B168F060F461D6
:10328000B0697061F06900284CBF6FF00102022242
:1032900000EB40001018421000EB927001EBA0010F
:1032A0007268F260002912DC7069032805D111F1FF
:1032B000150211001EDA00211CE011F10B000100C3
:1032C000B8BF0021521E48BF0022F26007E01E294D
:1032D00012DD706928B915391E29C8BF1E210320C7
:1032E00009E00B391E29C8BF1E21521C3F2AC8BF46
:1032F0003F22F26000207061316108231D4CF068AC
:1033000080B200904FF47F422768D7F804C0302184
:103310002846E0470120009011232768D7F804C011
:103320004FF4003204212846E047306980B2009013
:1033300012232768D7F804C04FF4F8020421284666
:10334000E047706980B200902846246865680A23C7
:103350004FF440622021A847F1BD000000800C40DE
:10336000E90E0020C43D010004800C402C500C40AC
:10337000080E0020A401001008400C40B43F00508B
:10338000102009403C600C4000A00C40A00100103F
:1033900000400C4034600C403748006800F020B911
:1033A00010B5374C626D536801210320984720689F
:1033B000C16A88473349886010BD70B5304C616D73
:1033C0000A680120904701281BD0A5692B48EE68A8
:1033D000002301223421B047A0B1FFF7DDFF2068B0
:1033E000C16A8847274B9A6827491C68D860A4EBB4
:1033F0009404801A4843000C1860A04238BF20464D
:103400001860012070BD38B51D4C626D53680021F5
:1034100003209847616D0A680120904708B1FFF7C3
:10342000BBFF2068174DC16A88476860206E01683D
:103430008847286131BD10B501461448144B026815
:103440001B68100400161B394843C01000EB2240D3
:10345000120601FB01F412161B06624361431B16A0
:1034600000EBA220594300EBA14010BD00FB00F18E
:10347000C0EBA15000B270478000001000A00C40CB
:103480008C010010282E002040420F0090130050A5
:10349000A4100050DFF800F079AD011010B504461B
:1034A000034BFFF7F7FFA06800B1204610BD00BF37
:1034B000240C002001488068704700BFC80100202C
:1034C00038B504460D4600F04AF8616A0D4365625E
:1034D00000F046F82046BDE83240FCF721BF192A2B
:1034E00062F30F2262F31F42401810F0030308D06A
:1034F000C91A1FD3DB0748BF00F8012D28BF20F8E9
:10350000022D130030B414461546103928BF20E9A7
:103510003C00FAD8490728BF20E90C0048BF40F812
:10352000042D890028BF20F8022D48BF00F8012D86
:1035300030BC7047C91818BF00F8012DCB0728BF51
:1035400000F8012D70470A1800E005E0EFF3118044
:10355000202181F31188704780F311887047F5E7C7
:10356000FAE70000F2E7F7E70D49C20744BF01227E
:103570000A60820744BF4FF480720A60400744BF6C
:103580004FF4803008607047064AC30748BF116097
:10359000830748BF5160400748BF916070470000F3
:1035A0000420094018200940DFF800F0E1BE0110B6
:1035B00070B5FFF7C9FF094D0446A8680021FFF761
:1035C000F3FF06466869861BA869B04238BF00262B
:1035D0002046FFF7BAFF304670BD00BF78010020DB
:1035E00070B50446FFF776FC451EAD41ED0F064E63
:1035F00030680028FCD0A047012131601DB1BDE832
:103600007040FFF76BBC70BD00800C40DFF800F02D
:1036100021C00110DFF800F019AE0110DFF800F052
:10362000F99B0110DFF800F055A4011010B504005B
:10363000002C05D008233C2200212000FFF7E6FFE4
:1036400010BD2DE9FC4707000E0090460025BFB2D3
:10365000380040F20131401A32D0401E3FD0401EA7
:103660004CD0801E56D0401E00F0FE80401E00F060
:103670000781401E00F03581401E00F06381401E2E
:1036800000F07081401E00F07D81401E00F08981B5
:10369000401E00F09681C01E00F0A381401E00F085
:1036A000B081401E00F0C181401E00F0D281401E5A
:1036B00000F0DF81401F00F0F081801E7AD00EE222
:1036C000F6B2102E08D11024DFF86C992200414682
:1036D0004846FCF7C9FE01E01820050012E2F6B2E8
:1036E000102E08D11024DFF8549922004146484694
:1036F000FCF7BAFE01E01820050003E2F6B2042E42
:1037000005D1D8F80000DFF83819086001E018206A
:103710000500F7E1F6B2012E49D1DFF8280900785B
:10372000012841D0DFF82009047898F80000DFF87C
:1037300018190870E4B2002C1BD0DFF80C090078CF
:10374000002816D1DFF804090078022804D0DFF839
:10375000FC08007805282CD1DFF8F4080178502007
:1037600001F004FF0200DFF8EC18102001F01DFF4B
:103770001FE0E4B2002C1CD1DFF8CC080078002850
:1037800017D0DFF8C8080078012809D0DFF8BC0896
:103790000078042804D0DFF8B4080078052808D1A0
:1037A000012000F075FF04E01220050001E0182060
:1037B0000500A7E1F6B2012E53D1DFF88C0800789E
:1037C00001284BD0DFF87C08047898F80000DFF877
:1037D00074180870E4B2002C20D0DFF86808007874
:1037E00000281BD1DFF864080078032809D0DFF82F
:1037F0005C080078072804D0DFF850080078052816
:1038000031D1DFF84C080178502001F0AFFE020002
:10381000DFF84018102001F0C8FE24E0E4B2002CCC
:1038200021D1DFF82008007800281CD0DFF81C0820
:10383000007801280ED0DFF814080078042809D099
:10384000DFF808080078062804D0DFF800080078C0
:10385000052808D1012000F01BFF04E0122005001C
:1038600001E0182005004DE1F6B2022E05D1B8F8AE
:103870000000DFF8E417088001E01820050041E1AE
:10388000F6B2202E2ADA1F245FF00009DFF8CCA759
:103890004A4621005046FFF723FEF6B2DFF8BCA7E8
:1038A000320041465046FCF7DFFDDFF8B4070670F2
:1038B000DFF89C070178502001F058FEDFF89C17D4
:1038C0000191DFF89C170978009101230200DFF8CD
:1038D0009417102001F069FE050001E01820050092
:1038E00010E1F6B2202E2ADA1F245FF00009DFF87B
:1038F00078A74A4621005046FFF7F2FDF6B2DFF8FE
:1039000068A7320041465046FCF7AEFDDFF85C0781
:103910000670DFF83C070178502001F027FEDFF841
:1039200048170191DFF8441709780091002302003D
:10393000DFF83017102001F038FE050001E01820F4
:103940000500DFE0F6B2012E09D198F80000052845
:1039500005DA98F80000DFF81817087001E0182061
:103960000500CFE0F6B2012E09D198F80000042836
:1039700005DA98F80000DFF8FC16087001E018205E
:103980000500BFE0F6B2062E08D10624DFF8E8965F
:10399000220041464846FCF767FD01E0182005007B
:1039A000B0E0F6B2012E09D198F80000082805DA37
:1039B00098F80000DFF8C416087001E01820050030
:1039C000A0E0F6B2012E09D198F80000042805DA2B
:1039D00098F80000DFF8A816087001E0182005002C
:1039E00090E0F6B2012E09D198F80000062805DA19
:1039F00098F80000DFF88C16087001E01820050028
:103A000080E0B8F80000F6B2022E0BD180B2062892
:103A100008DB80B240F68141884203DADFF86416A1
:103A2000488001E018210D006CE0B8F80000F6B203
:103A3000022E0BD180B2062808DB80B240F681410D
:103A4000884203DADFF83C16888001E018210D0077
:103A500058E0B8F80000F6B2022E07D180B2B0F5F7
:103A6000FA7F03DADFF81C16C88001E018210D0088
:103A700048E0B8F80000F6B2022E0BD180B20A2856
:103A800008DB80B240F68141884203DADFF8F415A2
:103A9000088101E018210D0034E098F80040F6B2EA
:103AA000012E19D1E4B2012C16D1DFF8DC0501F0AA
:103AB00096FE00280DD1DFF8CC15002000F082FD25
:103AC0000500EDB2002D09D1DFF8880A01F097FE5C
:103AD00004E01620050001E01820050012E0BFB246
:103AE000282F0DDAF6B2022E0AD1B8F80030BFB294
:103AF0003A00DFF8981B102001F057FD050001E0A7
:103B0000022005002800C0B2BDE8F6872DE9F0418B
:103B100004000E000025A4B220004FF44071401AAA
:103B200048D0401E4BD0401E52D0401E59D0401E9F
:103B30005CD0401E63D0401E6BD0401E6ED0401E35
:103B400077D0401E00F08080401E00F08280401E32
:103B500000F08480401E00F08A80401E00F08C80BF
:103B6000401E00F08E80801E00F09080401E00F00D
:103B70009280401E00F09480401E00F09680401E0F
:103B800000F09880401E00F09A80401E00F0A08057
:103B9000401E00F0A280401E00F0A480801E00F0B5
:103BA000AB80401E30D0401E00F0A180401E00F0CF
:103BB000A880ABE0DFF8040A00783070B4E010278A
:103BC000DFF874843A0041463000FCF74DFCABE06E
:103BD0001027DFF868843A0041463000FCF744FCC7
:103BE000A2E0DFF85C04006830609DE00627DFF8A3
:103BF000D0893A0041463000FCF736FC94E0DFF80B
:103C00004804007830708FE0DFF8380400783070B6
:103C10008AE0DFF844040088308085E0DFF8400463
:103C20000778DFF838843A0041463000FCF71CFC86
:103C30007AE0DFF838040778DFF82C843A00414650
:103C40003000FCF711FC6FE0DFF8240400783070DE
:103C50006AE0DFF820040078307065E00627DFF8BE
:103C600018843A0041463000FCF7FEFB5CE0DFF8C8
:103C70000C040078307057E0DFF8040400783070EE
:103C800052E0DFF81C0A008830804DE0DFF8F403D2
:103C90000078308048E0DFF8EC034088308043E073
:103CA000DFF8E003808830803EE0DFF8D803C0888A
:103CB000308039E0DFF8CC030089308034E006271B
:103CC000DFF8E0893A0041463000FCF7CDFB2BE0FD
:103CD000DFF8D4090088308026E0DFF8D0090088BA
:103CE000308021E0DFF8C809008830801CE0DFF870
:103CF000C4090078307017E0DFF8500300783070A6
:103D000012E0DFF8B409007830700DE0A4B2282C7E
:103D100008DAA4B22200DFF8A419102001F045FC53
:103D2000308001E0022005002800C0B2BDE8F0812B
:103D300010B50400C5480078002808D1002C02D036
:103D4000DFF87C09046000F007FC002000E011208F
:103D500010BD80B5BD480078062803D0BB48007868
:103D6000072811D1BA480178502001F0FFFB132138
:103D70000091DFF82C190B880200DFF84C19102095
:103D800001F013FCC0B200E0122002BD00B58FB0FC
:103D90006846FFF74BFCDFF8340907904FF4DC70FE
:103DA00008900420069000236A460FF2F501DFF820
:103DB0002009FFF72FFC0FB000BD2DE9FC41DFF813
:103DC0001419A34801F073F80020A04908704FF6B9
:103DD000FF70DFF8CC1808800120019000200090CF
:103DE000002300220FF66111DFF8EC0801F09FFCC0
:103DF0000220019000200090002300220FF64911BC
:103E0000DFF8500701F093FC04200190002000909F
:103E1000002300220FF631119B4801F088FC04209A
:103E2000DFF89817087010240025834E2A0021001F
:103E30003000FFF755FB10260027DFF800823A001C
:103E400031004046FFF74CFB00207D490860002010
:103E50008749087000208749087007208749087043
:103E60000020874908707448009010230222DFF870
:103E70006C18102001F099FB704800901023032269
:103E8000DFF85818102001F090FB6D4800900423D3
:103E90000422DFF84818102001F087FBBDE8F38109
:103EA0002DE9F04387B005000E00FFF786FF5FF0B5
:103EB000FF33DFF82C280021DFF818080068FFF72F
:103EC000ADFB0400002CF2D00020029002AA01A950
:103ED0000DF1060001F070F8002825D1BDF80600AC
:103EE00010281BD19DF8040059490978884215D142
:103EF000029F38884FF6FF7188420CD178884004C1
:103F00000CD54F48009004230422DFF8D817102066
:103F100001F04BFB02E0029800F061F802980028E3
:103F200002D0029801F022F8E0074CD5464800780C
:103F3000002803D143480078002844D04148007845
:103F4000002803D003208DF80C0011E048480078C9
:103F50008DF80C00474800788DF80D000627DFF833
:103F600018810DF10E093A0041464846FCF77CFAEB
:103F7000424800788DF81400414800788DF815000B
:103F800033480178502001F0F1FA020003ABDFF86A
:103F90005817102001F009FB002814D008202B49E5
:103FA0000870DFF81C07006800280CD0DFF8100745
:103FB00000680068002806D024480078DFF8001761
:103FC000096809688847A00703D52E49002000F03A
:103FD000F9FA60077FF56BAF00F0D6FA67E7F8B53E
:103FE00004002078A22805D0D02824D1200000F099
:103FF0004DF820E02500687913281BD115F108063B
:10400000308801280AD1DFF8E4060078022805D1BB
:104010001D4801F0F4FBFFF79CFE0BE00522DFF8E2
:104020009C16102001F0C1FA0700BFB239001648F3
:1040300001F0B6FBFFE7F1BDB0240020C024002052
:10404000D0240020312F0020291100202F2F002004
:104050002E2F00209945011004110020680A00202D
:104060002A11002009450110DC240020322F0020F5
:10407000332F0020342F0020FC240020352F002077
:10408000362F0020880A00203C2400202DE9F0472C
:1040900084B005000026A878002817D002285CD03C
:1040A000032800F0A380042800F0A080052800F079
:1040B000F880062800F05381072800F098810F2827
:1040C00000F0BA81112800F0BE812EE22F007C782A
:1040D000E4B2002C37D1DFF818060090102302223A
:1040E000DFF80016102001F060FADFF808060090F3
:1040F00010230322DFF8EC15102001F056FA5FF0D0
:10410000060817F10309DFF8B8A4424649465046AD
:10411000FCF7AAF90120DFF8E0150870DFF8DC05EC
:104120000178502001F022FA0200DFF8D405019056
:10413000DFF8D005007800900123DFF8CC151020BF
:1041400001F033FA0400E4B2002C03D00820DFF8B9
:10415000A815087001200600E7E12C00607800280F
:104160003AD1E078002815D0DFF89005017850208A
:1041700001F0FCF9DFF894150191DFF89415097846
:10418000009100230200DFF88015102001F00DFAE5
:10419000607021E0DFF86005007802281CD0DFF8AD
:1041A00058050078072817D0DFF84C050078062856
:1041B00004D1DFF86005007801280DD1DFF838055B
:1041C0000078032808D0DFF8100501F008FB00286C
:1041D00002D1012000F05CFA6078002805D00820A8
:1041E000DFF814150870012006009EE12C006078AD
:1041F00000284FD1A878032818D1DFF8FC040078F4
:10420000062804D10720DFF8F014087046E0DFF834
:1042100008050078002804D00220DFF8DC140870BC
:104220003CE00320DFF8D014087037E0DFF8EC043E
:104230000088002811D0DFF8E0040078002804D1BD
:10424000DFF8D0040078002815D0DFF8D00401880A
:10425000DFF8840401F0A4FA0DE0DFF8BC04007874
:10426000012804D10020DFF8B014087003E000201A
:10427000DFF8A0140870DFF880040078072804D164
:104280000620DFF87414087008E00420DFF86814D2
:10429000087003E00820DFF86014087001200600B1
:1042A00043E12C006078002846D1062714F1040869
:1042B000DFF8F0933A0041464846FCF7D5F86089AC
:1042C000DFF8DC1308800620DFF82C140870E08982
:1042D000DFF8D4130880208ADFF8D0130880608AC2
:1042E000DFF8CC130880E078DFF8C8130870DFF837
:1042F00030040078012804D0DFF824040078022874
:104300000ED11F22DFF8B413102001F04EF9070080
:10431000BFB24FF47A7101FB07F18E4801F040FA09
:104320000420019060890090231DE278DFF8F413E7
:10433000102001F03AF90FE06078312808D1002010
:10434000DFF8D41308700420DFF8AC13087003E022
:104350000820DFF8A413087001200600E5E02C0017
:10436000A288DFF8C413102001F01FF906275FF0C0
:104370000008DFF83093424639004846FFF7B0F8AE
:104380000020DFF8241308800020DFF820130880C5
:104390000020DFF81C130880A079DFF81C130870D8
:1043A0006C4801F02CFADFF8840301F028FA0120B0
:1043B00006004FF6FF70BA490880DFF8580300780E
:1043C000002804D00320DFF8301308700EE0A07935
:1043D000082804D10520DFF82013087003E004202A
:1043E000DFF814130870012000F052F99DE02C0052
:1043F000DFF8380301F003FA607800281BD1E08869
:10440000A94908802089A94908806089A8490880AD
:10441000504801F0E4F900280DD1AA4800680028AE
:1044200009D0A3480288A14801889F480088A54B6D
:104430001B681B68984778E00523AA88BC491020B0
:1044400001F0B3F871E02C00A088ADF80000B4488A
:104450000078052803D100208DF80A005FE00120D4
:104460008DF80A003B4801F0CAF9AD4800780128F0
:1044700003D0AB48007804282CD1E088A8494988AB
:10448000884202D2A648408800E0E088ADF80200E9
:104490002089A3498988884202D2A148808800E007
:1044A0002089ADF8040060899D49C988884202D2FC
:1044B0009B48C08800E06089ADF80600A089984953
:1044C0000989884202D29648008900E0A089ADF8A7
:1044D000080024E092480078032803D09048007830
:1044E000022810D18E484088ADF802008C488088A0
:1044F000ADF804008A48C088ADF8060088480089F5
:10450000ADF808000BE0E088ADF802002089ADF8B6
:1045100004006089ADF80600A089ADF808006A467D
:104520008449102001F041F8FFE7F6B2012E0ED1C8
:104530006348006800280AD06148006800680028C5
:1045400005D06D4800785E49096809688847BDE86C
:10455000FF8700001824002000B585B06748017867
:10456000502001F003F874490391624902916049B7
:1045700001910021009111490B7802006F49102030
:1045800001F013F805B000BD80B558480078012847
:1045900002D002280DD00FE001200090604803896E
:1045A0005F48C2885E4881885D48408800F04CF8CA
:1045B00002E0FFF7CEFBFFE701BD0000302F002037
:1045C000D4240020FEB505000E003748008871880D
:1045D00088420ED3B08834490988884209D33348C9
:1045E0000088F188884204D13148008831898842A6
:1045F00026D005223149102000F0D7FF07002848B7
:104600000088ADF800007088ADF80200B088ADF801
:104610000400F088ADF806003089ADF808006A465D
:104620004749102000F0C1FF0400E4B2002C08D17B
:104630002E480570BFB239003C4801F0B1F800E0E7
:1046400018242000C0B2FEBD2DE9F04184B0050061
:104650000E00170098460A9C27480078062801D0CB
:1046600014200FE0ADF80250ADF80460ADF806700C
:10467000ADF80880334801F0C2F869462000C0B2A6
:10468000FFF7A0FF04B0BDE8F0810000BD84011079
:1046900010B5040021000F480068FEF7C3FF10BDED
:1046A00006110020042500200A2F00200C2F0020D6
:1046B0000E2F0020372F0020382F0020F584011006
:1046C0000C25002010250020E514011038110020D1
:1046D00060240020F0230020F4230020ADD7000048
:1046E00007000080EDD7000059440110392F002049
:1046F000B0240020C02400202F2F00202E2F0020C7
:10470000680A00202A11002009450110DC2400203D
:10471000322F0020312F0020291100200411002009
:10472000880A002085190100050B01003C240020A7
:10473000C117011005160110D0240020CD3401004E
:104740007D1501101824002010B504002000FFF78B
:104750009FFF10BDDFF800F02DB40110DFF800F06E
:10476000CDAC0110DFF800F02DC00110DFF800F033
:10477000FDB1011010B50400002C05D0082324223F
:1047800000212000FBF7E6FC10BD10B50400002C52
:1047900005D008233C2200212000FEF737FF10BD82
:1047A00080B5FBF741FFADF80000FBF747FCADF823
:1047B0000200009802BD11B581B001AC6088FBF722
:1047C00041FC2088FBF734FF13BDF8B5DFF8BC0AC5
:1047D000007801285CD00120DFF8B01A0870DFF8FB
:1047E000B00A80088000DFF8801B0860DFF87C1BBF
:1047F000DFF8740B0068091ADFF8740B0160DFF84A
:10480000680B0068DFF86C1B0860DFF85C0B04685D
:10481000DFF8540B0168DFF8580B006841188C4230
:1048200003D200202060241DF2E7DFF8480B006867
:10483000DFF83C1B0968890800EB8100051F002098
:104840002860DFF8300B0668E8203060DFF8240BC2
:10485000006810F1E807DFF8180B00688008800096
:10486000EC383860DFF8100B0760002000F011F81A
:10487000DFF8081B0860DFF8FC0A0068DFF8F81AA8
:104880000860DFF8EC0A0068001FDFF8F41A08601F
:10489000F1BD2DE9F04180460027002418F10408FD
:1048A00018F00300C0B2002807D018F104084146F0
:1048B00080465FFA88F8B1EB0808FFF771FFDFF870
:1048C000C41A0860B8F1110F03D2DFF8AC0A066809
:1048D00002E0DFF8A80A06683568002D04D595F0D7
:1048E00000450020040012E0E4B2002C0AD0396830
:1048F0003068411839603868404508D33E00306858
:1049000005000DE045450BD20120040037002E4480
:1049100030680500002D02D10020060000E0DCE731
:10492000002E1FD0B5EB0805042D0ED306EB0800B2
:10493000056058F000413160DFF8441A0968B1EBB6
:104940000801DFF83C2A11600BE0DFF8340A016847
:104950003068091ADFF8280A0160306850F000401A
:104960003060361DDFF81C0A0068FFF724FF3000B6
:10497000BDE8F08138B50400FFF712FFDFF8041A34
:104980000860251F286820F000402860DFF8F00943
:10499000016828684118DFF8E8090160DFF8D809E4
:1049A0000068854202D2DFF8D0090560DFF8D4093B
:1049B0000068FFF700FF31BD2DE9F8430026002510
:1049C00000275FF00008FFF7EBFEDFF8B81908607A
:1049D000DFF8A809D0F80090D9F800000400002CF6
:1049E00002D1B84519D217E0002C07D594F0004445
:1049F00000200500B8450DD2B8460BE0EDB2002D01
:104A000004D0306820183060E71903E02700012047
:104A100005004E46A144DFE7B846DFF868090068A4
:104A2000FFF7C9FE4046BDE8F28310B50400DFF889
:104A3000400900682060DFF8480900686060FFF7FF
:104A4000BBFFA060A068092803D3A0680838A06055
:104A500001E00020A06010BD10B50400FFF7B5FE16
:104A60004BF6BE2010BD70B504000D0016002800E6
:104A7000FFF70FFF70BD70B504000D001600280091
:104A8000FFF778FF70BD13B5040001A8FFF7CDFF55
:104A900013BD01000120704770B50400FFF780FED0
:104AA00005000026042E1BD2DFF8BC0A0C2101FBF6
:104AB00006F14058002813D0DFF8AC0A0C2101FBA6
:104AC00006F14058844209D12800FFF774FEDFF850
:104AD000981A0C20464301EB060005E0761CE1E73E
:104AE0002800FFF768FE002070BDF8B50400FFF74E
:104AF00057FE05000026042E34D2DFF86C0A0C2184
:104B000001FB06F14058002818D1DFF85C0A0C219F
:104B100001FB06F100EB01073C600020B8600021BA
:104B20000020FFF717FE78607868002801D100F0B8
:104B3000ADFE2800FFF73FFE380017E0DFF8280A37
:104B40000C2101FB06F14058844209D12800FFF7EF
:104B500032FEDFF8141A0C20464301EB060005E094
:104B6000761CC8E72800FFF726FE0020F2BD70B5CE
:104B70000400FFF715FE05000026062E19D2DFF807
:104B8000B80A0C2101FB06F1405A002811D0200080
:104B9000DFF8A41A0C2202FB06F2895A80B288427E
:104BA00005D12800FFF707FE3000C0B205E0761CF3
:104BB000E3E72800FFF7FFFDFF2070BD10B50400FC
:104BC000200080B2FFF7D3FF0100C9B2FF2901D155
:104BD000002006E0DFF8602AC9B20C20414302EB56
:104BE000010010BD38B505002888FFF7E7FF040075
:104BF000002C02D15FF0FF3008E0A068002802D14D
:104C00007FF0010002E02800A168884732BD38B576
:104C100004000D002900DFF8B00AA04731BD10B52F
:104C20000020042810D20021DFF83C290C2303FBCC
:104C300000F3D1500021DFF830290C2303FB00F3EF
:104C40001A449160401CECE70024062C08D2002096
:104C5000DFF8E4190C2202FB04F28852641CF4E72A
:104C6000FFF7B3FD10BD2DE9F0438FB005000E0036
:104C7000FBF7DAFC07005FF00008F6B2B04530D26F
:104C80006846FFF782FD5FEA0810284440680690F6
:104C90005FEA08102844806808905FEA08102858E6
:104CA00004905FEA08102844C06805900022694615
:104CB000DFF8180AFFF752FD0400002C01D100F0C4
:104CC000E5FDFFF76DFD81462000FFF70EFF002890
:104CD00001D100F0DBFD4846FFF76DFD18F101083A
:104CE000CBE73800FBF7A4FC0FB0BDE8F0831FB59D
:104CF0000024002C20D1DFF8D80950F824006946A0
:104D0000220111444860DFF8CC0950F824006946BC
:104D1000220111448860DFF8C00950F82400694678
:104D200022018850DFF8B40950F8240069462201B6
:104D30001144C860641CDCE701216846FFF793FF5B
:104D40001FBDF8B504000D00FFF72AFD0700002085
:104D500045F80C0C2068002801D125600AE0206885
:104D6000060056F80C0C002802D056F80C6CF8E738
:104D700046F80C5C3800FFF71EFDF1BD70B504006D
:104D80000025FFF70DFD0600206800280AD02068E6
:104D9000050055F80C0C2060002045F80C0CFF2095
:104DA00005F8020C3000FFF706FD280070BDF8B5CD
:104DB00005000C000026FFF7F3FC0700002C0BD0C9
:104DC000260056F80C0C002802D056F80C6CF8E7B8
:104DD000286846F80C0C2C603800FFF7ECFCF1BD9D
:104DE00038B5FFF7BFFC05002800FFF755FE0400AB
:104DF000002C02D17FF004000AE0A068002801D155
:104E0000022005E05FF000416068FEF70BFC002027
:104E100032BD0200D2B2062A13DADFF81C08D2B281
:104E20000C2303FB02F3C05A00280AD0DFF808085D
:104E3000D2B20C2303FB02F3C05A4FF6F873984228
:104E400002D15FF0FF3008E0DFF8EC07D2B20C23AC
:104E500003FB02F3C05A088000207047D0B506005B
:104E60000C0000274FF47A720023A2FB060102FB1C
:104E7000071103FB0611DFF868281268002300F011
:104E800009FD02000B005FF0004000218B4205D3BA
:104E900001D8824202D37FF0020001E022600020AC
:104EA000D0BD10B50400A0686168884710BD2DE929
:104EB000F04105000E00FFF755FCFFF716FE040059
:104EC000002C04D100F0E2FC7FF0030039E0FFF792
:104ED00067FC07005FF00008B8F1060F2AD2DFF880
:104EE00058070C2101FB08F1405A00281FD14FF64A
:104EF000F870DFF844170C2202FB08F28852DFF842
:104F000038070C2101FB08F1084444600020DFF859
:104F100028170C2202FB08F21144886085F80080F3
:104F2000606830603800FFF746FC002009E018F1A7
:104F30000108D1E700F0AAFC3800FFF73CFC7FF045
:104F40000300BDE8F08110B5040014F10C00FFF778
:104F5000A0FC0100002901D1002006E00C81002006
:104F60000860FF20887211F10C0010BD38B50400F4
:104F7000B4F10C052800FFF7FDFC31BD2DE9F0412F
:104F800004000D0016001F00280080B2FFF7EFFD9F
:104F900080465FFA88F8B8F1FF0F02D15FF0FF306A
:104FA00008E03B003200D2B24146C9B22000C0B294
:104FB00000F0D2F8BDE8F081F8B505000E0017004A
:104FC0003A003100280000F010F90400002C11D143
:104FD00069462888C0B2FFF71CFF002805D0386852
:104FE000FFF7C4FF7FF0050005E0BDF80000288052
:104FF000FFF7F6FE2000F2BD70B582B00400FFF7A7
:10500000B1FB06003000FFF747FD050000F0BAFCD9
:105010000100C9B2002902D0C9B2012902D17FF032
:10502000040022E0002D02D17FF004001DE0002CDE
:1050300002D1002000900CE014F1010F03D15FF0C9
:10504000FF30009005E069462000FFF707FF0028C9
:105050000BD1009B5FF0004200216868FEF7DEFA8A
:10506000002801D0002000E0012076BD10B504002A
:105070005FF000412000FEF7D5FA002010BD2DE9B9
:10508000F04705000E0017009846FFF76BFBFFF78F
:105090002CFD0400002C02D17FF0020047E0FFF756
:1050A0007FFB81465FF0000ABAF1060F38D2DFF8C5
:1050B00088050C2101FB0AF1405A00281DD1DFF8B8
:1050C00078050C2101FB0AF14552DFF86C050C2133
:1050D00001FB0AF108444460DFF85C050C2101FB88
:1050E0000AF10844866087F800A06068C8F80000EC
:1050F0004846FFF760FB002019E02800DFF838156C
:105100000C2202FB0AF2895A80B2884205D1484635
:10511000FFF751FB7FF0020009E01AF1010AC3E733
:1051200000F0B4FB4846FFF746FB7FF00300BDE804
:10513000F08710B50400A4B22000FFF7AAFB10BD51
:1051400010B504002000FFF715FC10BD10B50400D9
:105150002000FFF76AFC10BD2DE9F84304000D00A4
:1051600016001F00B7F10C08EDB2062D02DAE4B20A
:10517000062C02DB7FF0020035E0FFF711FB8146D1
:10518000DFF8B404EDB20C2101FB05F108444068DE
:10519000002805D14846FFF70EFB7FF0020022E011
:1051A0004846FFF708FB88F8044088F8055088F85F
:1051B00006603900DFF88004EDB20C2202FB05F234
:1051C000104440680830FFF7BCFD5FF00041DFF895
:1051D0006804EDB20C2202FB05F2104440684068FE
:1051E000FEF720FA0020BDE8F2832DE9F04105002A
:1051F0000E001700FFF7B6FA80464046FFF74CFC5A
:105200000400002C02D17FF0040010E014F108002B
:10521000FFF7B4FD0100002901D1022007E0B1F140
:105220000C02107928705079307039600020BDE888
:10523000F08180B501208DF800009DF80000002865
:10524000FBD100F023FB002002BD80B5FBF7A2F9E3
:1052500002BD80B5DFF8880400687FF00041A1FB43
:1052600000014FF47A72002300F014FB5FF000425B
:105270000023994207D301D8904204D37FF0004223
:1052800000231000190002BD000000002C2F002098
:10529000582F00202DE9F84305000E00170098460E
:1052A00069462800FFF7DAFD0400002C01D0200039
:1052B00008E0DDF8009043463A003100484600F02F
:1052C00003F82000BDE8F2832DE9F04389B0050022
:1052D0000E0017009846D8F80000002829D10C20AD
:1052E000FFF7D7FA0400002C02D17FF0030038E06A
:1052F0006846FFF73FFA0020ADF810000020059047
:10530000069400236A462900DFF8D803FFF72EFA37
:1053100020602068002807D1FFF78BFF2000FFF7EF
:1053200029FB7FF003001CE06660A760C8F800401E
:105330000FE0D8F80040DFF8B003006880478146EE
:105340002068FAF70BFFA7604846DFF8A01309684A
:10535000884729002068FAF705FF2068FAF706FF5A
:10536000002009B0BDE8F083DC230020FF3F0020CF
:10537000E4230020E0230020D0230020D4230020B9
:10538000D8230020CC23002038B504002500002CB1
:1053900002D02868FAF7E2FE31BD1CB504008DF892
:1053A0000440684600F028FB9DF8050016BD1CB5BA
:1053B00004000194684600F069FB16BD1CB50400AA
:1053C0000194684600F070FB16BD2DE9F04F85B0E2
:1053D0000400884615001E00FFF7C4F904900498E5
:1053E000FFF75AFB07000020039000F0CBFA010002
:1053F000C9B2002902D0C9B2012902D17FF004004C
:105400007BE0002F02D17FF0040076E0002C02D177
:105410000020019010E014F1010F03D15FF0FF3084
:10542000019009E001A92000FFF718FD8346BBF1B8
:10543000000F01D0584660E05FF00109FBF7AAF8C1
:105440008246019810EB0A0A019B5FF0005200218E
:105450007868FEF7E3F8002847D002AA69460DF104
:105460000100FFF7C2FE8346BBF1000F28D10DF10A
:1054700002019DF80100FFF7CCFC002817D1029A29
:105480009DF80010BDF80200C04700280FD0002D85
:1054900002D0BDF802002880002E02D09DF8000046
:1054A000307002980E9908605FF000091DE00299C3
:1054B00003A8FFF746FC5FF000517868FEF7B2F8EA
:1054C0005FF00109019810F1010FBDD0019800288B
:1054D000BAD0FBF75FF8BAEB0000002802D00199C0
:1054E000814200D201E00190AEE7FFF779FC039919
:1054F00017F10800FFF75BFC484605B0BDE8F08FE8
:10550000F8B5FFF72FF9040000F03CFA0100C9B22A
:10551000002902D0C9B2012901D1FF2022E0FFF702
:105520003FF905000026062E18D243480C2101FB46
:1055300006F1405A002811D03F480C2101FB06F12A
:10554000084440680068A04206D137002800FFF7F1
:1055500032F93800C0B205E0761CE4E72800FFF716
:105560002AF9FF20F2BD00005423002030B583B09B
:1055700004000D00ADF800400020ADF802008DF8E9
:10558000065068465A49096888470100002902D137
:105590009DF8070000E0FF203EBD1378422B01D1AB
:1055A000012000E00020C0B270470CB4F0B587B015
:1055B00005000E000CAF00F0E5F90400E4B2002C89
:1055C00002D0E4B2012C01D1FFF733FE1420ADF874
:1055D000100000200290FF208DF81200069605971B
:1055E000FFF78EFF05AB0322EDB2290089B2C0B2EE
:1055F000FFF7C4FC0020019001A8009000230022C6
:105600003C4941F28830FFF7E0FE0400012C02D152
:10561000FFF70FFE0AE0002C06D10198002805D004
:105620000198FFF7A3FC01E0FFF703FE059800686F
:1056300007B0F0BC5DF80CFB842300202DE9F84393
:1056400004000D0016001F00B7F10C08EDB2062D86
:1056500002DAE4B2062C02DB7FF0020032E0FFF750
:105660009FF881462448EDB20C2101FB05F1084466
:105670004068002805D14846FFF79DF87FF00200FA
:1056800020E04846FFF797F888F8044088F805506E
:1056900088F8066039001848EDB20C2202FB05F2CA
:1056A000104440680830FFF74CFB5FF0005112488F
:1056B000EDB20C2202FB05F2104440684068FDF791
:1056C000B1FF0020BDE8F283104001000F4C000044
:1056D000484101004C41010044410100300A0020D2
:1056E0002C410100A34E0000340A0020380A00209B
:1056F0003C0A00209B55000084230020DFF800F0C6
:10570000A1B60110DFF800F035BD0110DFF800F0A0
:1057100019BD0110704710B50400002C05D00823F6
:10572000242200212000FAF715FD10BD70472DE955
:10573000F0478AB005000E0017009846129CDDF86D
:105740004C904FF47A704E490968B0FBF1FA0AFBAD
:1057500007FA6846FFF7DFFFCDF818904FF47A702C
:1057600047490968B0FBF1F000FB08F00590E4B28E
:10577000ADF810406B46524631002800FAF7FAFCAB
:105780002800FFF7D3FF0AB0BDE8F08738B5040062
:105790002000FFF7CBFF05002800FAF7E7FC31BD3A
:1057A000F8B504000D002000FFF7C0FF0700380027
:1057B000FAF70BFF002802D03800FAF7CFFC4FF4BD
:1057C0007A702F490968B0FBF1F606FB05F6310047
:1057D0003800FAF7C7FC3800FAF7C8FCF1BD38B555
:1057E00004002000FFF7A2FF05002800FAF7EDFEF5
:1057F000002801D0012000E00020C0B232BD38B541
:1058000004002000FFF792FF05002800FAF7A6FC2D
:1058100031BD10B5040000212000FFF76FFF20000C
:10582000FFF778FF10BDF8B506000D0017000C203B
:10583000FFF77FFC0400002C0DD0A7602100300092
:10584000FFF760FF002D04D05FF080412800FDF7D6
:10585000E9FE012003E03800FFF772FC0020F2BDF2
:1058600070B504002000FFF751FF0500A54205D0E8
:10587000AE682800FFF764FC300000E0002070BD37
:105880002C410100DFF800F01D9A01100120FFF704
:10589000F9BF232A1B4213D1094236D12AB18446CB
:1058A000B0FBF2F002FB10C2704700F00FB9FCD35E
:1058B0000022002370470B000200002100207047E7
:1058C000904271EB030CF6D370B5B1FA81F4B3FAE0
:1058D00083F52C1BA340C4F1200532FA05F63343AF
:1058E000A2405FF00046E64002E05B085FEA320259
:1058F000841A71EB030524BF204629467641F4D370
:1059000002000B003000002170BD012ACFD970B514
:10591000140C20D0B1FA81F4B2FA82F5C4F120045B
:105920006419B4F12006D6D3B2405FF00044F440CD
:10593000002502E052085FEA3303C61A71EB020E3B
:1059400024BF3046714664416D41F3D302000B0021
:105950002000290070BD0C46B1FBF2F102FB11459D
:105960002D0445EA1045B5FBF2F402FB145580B254
:1059700040EA0545B5FBF2F002FB105240EA044054
:1059800070BD242A0148007D704700BFA40100209B
:1059900038B50400B4FA84F5EDB2202D11D0D5F15C
:1059A0001F050120A8404440EDB2052D04DAEDB2F8
:1059B0002800FCF7ADFFEDE7EDB2681FFCF7BDFF77
:1059C000E8E731BD38B50400B4FA84F5EDB2202D16
:1059D00011D0D5F11F050120A8404440EDB2052D9E
:1059E00004DAEDB22800FCF72EFFEDE7EDB2681FF8
:1059F000FCF73FFFE8E731BD38B5040001206071D6
:105A0000207900281DD0FEF7CBFE05002D48007838
:105A1000FF2805D12800FEF7CEFE7FF0060034E017
:105A200028480078401C274908702648007801283B
:105A300003D125480068FFF7ABFF2800FEF7BBFE47
:105A400022E0FEF7ADFE05001E480078002805D1D3
:105A50002800FEF7B0FE7FF0070016E01948007836
:105A6000401E1849087017480078002809D12800FE
:105A7000FEF7A1FE14480068FFF7A4FF0020607144
:105A800002E02800FEF797FE002032BD10B50400AA
:105A9000606810F07F4F02D07FF0020003E0606882
:105AA000FFF776FF002010BD10B50400606810F00D
:105AB0007F4F02D07FF0020003E06068FFF782FFB3
:105AC000002010BD2D2F0020440A00207047252AF9
:105AD0002DE9F0439FB081462698DFF8F48B8DF8CE
:105AE0003B00174600201E4602910B900FF27014E7
:105AF0004FF0FF350AE017F8011B0298C84700284D
:105B0000029000F09A800B98401C0B90387850B1AE
:105B10002528F0D1002000210590069107900891DA
:105B200009900A9103E00B989EE041F0010117F8FB
:105B3000010F2028F9D023280DD02B2804D02D28A0
:105B400006D030280AD07AE041F0020189B2EEE7AF
:105B500041F00401FAE741F00801F7E741F01001D4
:105B6000F4E700200D9009E00D98404505DA00EBC0
:105B7000800302EB4302303A0D927F1C3A78A2F187
:105B800030000A28F0D33A782E2A18BF0C9523D17A
:105B900017F8010F2A2807D1306830607F1C50F8B1
:105BA000042B30600C9217E02D280CBF17F8010B66
:105BB000002000220C920AE040B90C9A424505DA16
:105BC00002EB820203EB4203303B0C937F1C3B78D9
:105BD000A3F130020A2AEFD3ADF838102046397805
:105BE00000F008FF08B117F8010B8DF83A009DF896
:105BF0003A00682804BF3978682903D162208DF8FB
:105C00003A0007E06C2804BF38786C2803D1712172
:105C10008DF83A107F1C10A80490324617F8013B0B
:105C20006946484600F060F838B910AA6946484607
:105C300000F0C2F900287FF569AF284614E02A2851
:105C40008FD13068306050F8042B3060002A0D92FC
:105C500004D5524241F004010D9289B27F1C92E7B3
:105C6000686A6C747A4C00001FB0BDE8F08362284B
:105C700020D0682811D06A2803D06C2827D071283A
:105C800025D10868C01D20F007000860D0E9002376
:105C900008300860194610467047002A0A680A60F2
:105CA000106803D0121D0A6000B217E0121D0A60CE
:105CB00080B217E0002A0A680A60106803D0121D3B
:105CC0000A6040B20AE0121D0A60C0B20AE0002A6F
:105CD0000A680A60106803D0121D0A60C117704775
:105CE000121D0A60002170477CB50D4611461C4606
:105CF0002E69B4F1250200F04D811C3A00F0868037
:105D0000121F022A40F282800E3A00F00781521FD1
:105D10005AD0093A7AD0921E16D0521E35D0521E51
:105D2000022A73D9121F30D0521F00F09A80521EDF
:105D30004AD0521E00F0E480D21E00F0FD80921E78
:105D400042D0D21E40D02BE195F83A206C2A09D0DF
:105D50006869421C6A610A680A6052F8043B0A607A
:105D6000335427E10A680A6052F8043B0A600021B4
:105D7000009301914FF0FF322A6329466A4600F0F2
:105D8000A2F9002840F1168101E195F83A000122BC
:105D9000FFF76DFFC5E900010023994204DA686945
:105DA000411C69612D210DE0288F810704D56869A8
:105DB000411C69612B2105E0C00722D56869411C9F
:105DC0006961202131541CE095F83A000022FFF768
:105DD0004EFFC5E9000195F83800010711D5D5E956
:105DE00000230020834208BF82420AD044F02000F2
:105DF000782806D1686930213154401C411C696102
:105E00003454214668693044E86083E00868C01D66
:105E100020F007000860D0E9002308300860C5E9D9
:105E20000023D5E90001C80F04D06869411C6961ED
:105E30002D210DE0288F810704D56869411C696117
:105E40002B2105E0C00704D56869411C6961202148
